:020000040000FA
:10000000A0EF3EF0C69A1200E6EF38F0C3EC14F011
:10001000CCEC11F0FDD71200C7EF3BF0D9CFE5FFD4
:10002000E1CFD9FF00C0E5FF01C0E5FF02C0E5FF59
:1000300003C0E5FF04C0E5FF05C0E5FF06C0E5FF1E
:1000400007C0E5FF08C0E5FF09C0E5FF0AC0E5FFFE
:100050000BC0E5FF0CC0E5FF0DC0E5FF0EC0E5FFDE
:100060000FC0E5FF10C0E5FF11C0E5FF12C0E5FFBE
:1000700013C0E5FF14C0E5FF15C0E5FF16C0E5FF9E
:1000800017C0E5FF18C0E5FF19C0E5FF1AC0E5FF7E
:100090001BC0E5FF1CC0E5FF1DC0E5FF1EC0E5FF5E
:1000A0001FC0E5FF20C0E5FF21C0E5FF22C0E5FF3E
:1000B00023C0E5FF24C0E5FF25C0E5FF020EDBCF2E
:1000C00000F0030EDBCF01F0040EDBCF02F0025094
:1000D000086E0150076E0050066EE56A100EE56E60
:1000E0000850E56E0750E56E0650E56E800EE56E31
:1000F000060EE56E550EE56E1FEC2FF0080EE1269C
:100100005DC603F05EC604F05FC605F060C606F08B
:1001100003C007F004C008F005C009F006C00AF0EB
:10012000D8800AAED8900AE30A1E091E081E076C82
:1001300005E1082A03E1092AD8B40A2A55C60BF0BA
:1001400056C60CF0E86A060156BFFF0E0D6E0E6E25
:100150005735106E58350F6E10360F361034030BAE
:10016000106E5951E844E844FC0B10125935126ED8
:100170005A35116E123611361234030B12B0FC09C7
:10018000126E0F500B5C0F6E10500C58106E115009
:100190000D58116E12500E58126ED89012AED880B3
:1001A000D8A05BD01250800F800F08E1000E115CC8
:1001B00005E1000E105C02E1010E0F5CD8B04DD0DD
:1001C0000A340A30166E0930156E0830146E073086
:1001D000136E63C617F064C618F0E86A060164BFC0
:1001E000FF0E196E800FF36E1650800FF35C08E15E
:1001F0001550195C05E11450185C02E11350175CAE
:100200002CE30D40156E15420E40166E1642C00EC0
:100210001616151415181612151A0C50E840E84059
:100220003F0B15120B40136E13420C40146E144218
:10023000C00E1416131413181412131A13500601B7
:10024000576F1450586F1550596F16505A6F5D6B99
:100250005E6B5F6B606BD4EF04F0073608360736D1
:1002600008360734030B0818081A0818076E0950D7
:10027000E844E844FC0B081209360A3609360A3607
:100280000934030B09B0FC090A180A1A0A180834C1
:1002900008300A6E0730096EE86A0ABEFF0E0B6E60
:1002A0000C6E07C00DF008C00EF0E86A08BEFF0E25
:1002B000136EE56E1350E56E0E50E56E0D50E56E53
:1002C0000C50E56E0B50E56E0A50E56E0950E56E78
:1002D0003FEC22F0096EF3CF0AF0F4CF0BF0E9CF38
:1002E0000CF0080EE12663C60DF064C60EF0E86A55
:1002F000060164BFFF0E136E146EE56E1350E56EBB
:100300000E50E56E0D50E56E0C50E56E0B50E56E2F
:100310000A50E56E0950E56EF4EC25F0096EF3CF56
:100320000AF0080EE1265BC60BF05CC60CF0E86A2A
:1003300006015CBFFF0E156E166E1540196E194250
:1003400016401A6E1A42C00E1A16191419181A12EB
:10035000191A0C50E840E8403F0B19120B40176E79
:1003600017420C40186E1842C00E181617141718B2
:100370001812171AD88006AED890D8B069D109C023
:100380000BF00AC00CF0E86A0ABEFF0E156E800F73
:10039000F36E1250800FF35C08E11150155C05E11B
:1003A00010500C5C02E10F500B5CD8B029D1065004
:1003B000800FF36E1A50800FF35C08E11950055C52
:1003C00005E11850045C02E11750035CD8B0F1D08D
:1003D00061C60BF062C60CF0E86A060162BFFF0E50
:1003E000156E166E03500B2604500C220550152274
:1003F000065016220B5006015D6F0C505E6F1550B3
:100400005F6F1650606F63C60BF064C60CF061C678
:1004100015F062C616F00C50800FF36E1650800F68
:10042000F35C02E115500B5CD8B0A7D05DC61BF0A1
:100430005EC61CF05FC61DF060C61EF01B34206E49
:100440001C341F6E20361F362034030B206E1D50C7
:10045000E844E844FC0B20121D34226E1E34216E49
:10046000223621362234030B22B0FC091F50076EBE
:100470002050086E08340830206E07301F6EE86A7E
:1004800020BEFF0E216E226E07C023F008C024F0AC
:10049000E86A08BEFF0E256EE56E2550E56E245015
:1004A000E56E2350E56E2250E56E2150E56E20503A
:1004B000E56E1F50E56E3FEC22F01F6EF3CF20F08B
:1004C000F4CF21F0E9CF22F0080EE1260BC023F093
:1004D0000CC024F0E86A0CBEFF0E256EE56E2550B8
:1004E000E56E2450E56E2350E56E2250E56E2150F6
:1004F000E56E2050E56E1F50E56EF4EC25F01F6EA2
:10050000F3CF20F0080EE1261F50096E20500A6E2E
:1005100009C01FF00AC020F0E86A0ABEFF0E216E73
:10052000226E1250800FF36E2250800FF35C08E1B0
:100530002150115C05E12050105C02E11F500F5C5E
:100540001CE20B50155C0B6E0C5016580C6EE86AD2
:100550000CBEFF0E156E166E0B501B5E0C501C5A17
:1005600015501D5A16501E5A1B5006015D6F1C5027
:100570005E6F1D505F6F1E50606F1A50800FF36EDC
:1005800006016051800FF35C08E15F51195C05E1E1
:100590005E51185C02E15D51175CD8B0DBD1175099
:1005A00006015D6F18505E6F19505F6F1A50606FD3
:1005B000D1D11A50800FF36E0650800FF35C08E122
:1005C0000550195C05E10450185C02E10350175C0A
:1005D000D8B0C0D10D50035C0B6E0E5004580C6E99
:1005E00013500558156E14500658166E0B50060120
:1005F0005D6F0C505E6F15505F6F1650606FAAD123
:1006000061C60BF062C60CF0E86A060162BFFF0E1D
:10061000156E166E0D500B260E500C22135015221F
:10062000145016220B50035C0B6E0C5004580C6EC9
:1006300015500558156E16500658166E0B500601CB
:100640005D6F0C505E6F15505F6F1650606F82D1FA
:100650000A1E096CD8B40A2A09C00BF00AC00CF0B3
:10066000E86A0ABEFF0E156E166E1250800FF36E0A
:100670001650800FF35C08E11550115C05E10C5039
:10068000105C02E10B500F5CD8B041D11A1C166E01
:10069000191C156E181C0C6E171C0B6E0B2A04E12E
:1006A0000C2A02E1154A162A1650800FF36E0650E6
:1006B000800FF35C08E10550155C05E104500C5C0B
:1006C00002E103500B5CD8B0FBD061C617F062C6E4
:1006D00018F0E86A060162BFFF0E196E1A6E175015
:1006E000035C176E18500458186E19500558196E8F
:1006F0001A5006581A6E175006015D6F18505E6F3B
:1007000019505F6F1A50606F63C617F064C618F017
:1007100061C619F062C61AF01850800FF36E1A50B5
:10072000800FF35C02E11950175CD8B0ADD05DC604
:100730001BF05EC61CF05FC61DF060C61EF01B34C9
:10074000206E1C341F6E20361F362034030B206EA3
:100750001D50E844E844FC0B20121D34226E1E3468
:10076000216E223621362234030B22B0FC09226E80
:10077000221E211E201E1F6C05E1202A03E1212AD2
:10078000D8B4222A1F50076E2050086E0834083053
:10079000206E07301F6EE86A20BEFF0E216E226EAB
:1007A000E86A08BEFF0E236EE56E2350E56E085022
:1007B000E56E0750E56E2250E56E2150E56E205043
:1007C000E56E1F50E56E3FEC22F0076EF3CF08F0A8
:1007D000F4CF1FF0E9CF20F0080EE12617C021F07A
:1007E00018C022F0E86A18BEFF0E236EE56E235093
:1007F000E56E2250E56E2150E56E2050E56E1F50EB
:10080000E56E0850E56E0750E56EF4EC25F0076ED6
:10081000F3CF08F0080EE126081E076C02E1082A53
:1008200000E10750096E08500A6EE86A0ABEFF0E22
:10083000076E800FF36E1250800FF35C08E11150C9
:10084000075C05E110500A5C02E10F50095C1CE2F4
:100850001750195C176E18501A58186EE86A18BEAF
:10086000FF0E076E086E17501B2618501C220750EB
:100870001D2208501E221B5006015D6F1C505E6F2A
:100880001D505F6F1E50606F06016051800FF36E48
:100890001650800FF35C08E115505F5D05E10C50C8
:1008A0005E5D02E10B505D5DD8B054D00B50060187
:1008B0005D6F0C505E6F15505F6F1650606F4AD0C1
:1008C0000650800FF36E1650800FF35C08E1155050
:1008D000055C05E10C50045C02E10B50035CD8B0F0
:1008E00039D00D500324076E0E500420086E1350AB
:1008F0000520096E145006200A6E075006015D6F30
:1009000008505E6F09505F6F0A50606F23D061C658
:1009100007F062C608F0E86A060162BFFF0E096EC2
:100920000A6E07500D2608500E22095013220A5055
:1009300014220D5003260E50042213500522145089
:100940000622035006015D6F04505E6F05505F6F15
:100950000650606F06015D35046E5E35036E043629
:1009600003360434030B046E5F51E844E844FC0B87
:1009700004125F35066E6035056E063605360634A0
:10098000030B06B0FC09066E57510326585104228A
:10099000595105225A5106220350576F0450586F7F
:1009A0000550596F06505A6FE56A100EE56E800EBD
:1009B000E56E060EE56E550EE56E0250E56E0150D1
:1009C000E56E0050E56E1FEC2FF0080EE126E4CF37
:1009D00025F0E4CF24F0E4CF23F0E4CF22F0E4CFFD
:1009E00021F0E4CF20F0E4CF1FF0E4CF1EF0E4CFFD
:1009F0001DF0E4CF1CF0E4CF1BF0E4CF1AF0E4CFFD
:100A000019F0E4CF18F0E4CF17F0E4CF16F0E4CFFC
:100A100015F0E4CF14F0E4CF13F0E4CF12F0E4CFFC
:100A200011F0E4CF10F0E4CF0FF0E4CF0EF0E4CFFC
:100A30000DF0E4CF0CF0E4CF0BF0E4CF0AF0E4CFFC
:100A400009F0E4CF08F0E4CF07F0E4CF06F0E4CFFC
:100A500005F0E4CF04F0E4CF03F0E4CF02F0E4CFFC
:100A600001F0E4CF00F0E4CFD9FF12000000000055
:100A70000000000000000000000000000000000076
:100A80000000000000000000000000000000000066
:100A90000000000000000000000000000000000056
:100AA0000000000000000000000000000000000046
:100AB0000000000000000000000000000000000036
:100AC0000000000000000000000000000000000026
:100AD0000000000000000000000000000000000016
:100AE0000000000000000000000000000100010004
:100AF00001000100010001000100010001000100EE
:100B000001000100010001000100010001000200DC
:100B100002000200020002000200020002000200C5
:100B200002000200030003000300030003000300AF
:100B30000300030003000300040004000400040099
:100B40000400040004000500050005000500050080
:100B50000500050006000600060006000600060067
:100B6000070007000700070007000700080008004B
:100B70000800080008000900090009000900090030
:100B80000A000A000A000A000B000B000B000B0011
:100B90000C000C000C000C000D000D000D000D00F1
:100BA0000E000E000E000F000F000F000F001000CF
:100BB00010001000110011001100120012001200AC
:100BC0001300130013001400140014001500150086
:100BD0001500160016001600170017001800180060
:100BE0001800190019001A001A001B001B001B0036
:100BF0001C001C001D001D001E001E001F001F0009
:100C00001F002000200021002100220022002300DC
:100C100023002400240025002500260027002700AB
:100C200028002800290029002A002A002B002C0077
:100C30002C002D002D002E002F002F003000310041
:100C40003100320032003300340034003500360009
:100C5000360037003800390039003A003B003B00CD
:100C60003C003D003E003E003F004000410041008E
:100C7000420043004400440045004600470048004D
:100C8000480049004A004B004C004D004E004E0009
:100C90004F005000510052005300540055005600C0
:100CA00056005700580059005A005B005C005D0078
:100CB0005E005F0060006100620063006400650028
:100CC00066006700680069006A006B006C006D00D8
:100CD0006F00700071007200730074007500760080
:100CE000780079007A007B007C007D007F00800026
:100CF00081008200830085008600870088008A00CA
:100D00008B008C008D008F00900091009300940068
:100D100095009700980099009B009C009D009F0003
:100D2000A000A100A300A400A600A700A900AA009B
:100D3000AB00AD00AE00B000B100B300B400B6002F
:100D4000B700B900BA00BC00BE00BF00C100C200BD
:100D5000C400C500C700C900CA00CC00CE00CF0047
:100D6000D100D300D400D600D800D900DB00DD00CC
:100D7000DE00E000E200E400E500E700E900EB004F
:100D8000ED00EE00F000F200F400F600F800F900CB
:100D9000FB00FD00FF00010103010501070109013E
:100DA0000B010D010F0111011301150117011901AB
:100DB0001B011D011F01210123012501270129011B
:100DC0002B012D012F0132013401360138013A0186
:100DD0003C013F0141014301450147014A014C01EA
:100DE0004E0151015301550157015A015C015E0149
:100DF00061016301650168016A016D016F017101A3
:100E00007401760179017B017E01800183018501F6
:100E100088018A018D018F019201950197019A0144
:100E20009C019F01A201A401A701AA01AC01AF018D
:100E3000B201B401B701BA01BC01BF01C201C501D1
:100E4000C801CA01CD01D001D301D601D901DB010E
:100E5000DE01E101E401E701EA01ED01F001F30146
:100E6000F601F901FC01FF010202050208020B0272
:100E70000E021102140217021A021D02210224029C
:100E800027022A022D023002340237023A023D02C2
:100E90004102440247024A024E02510254025802E1
:100EA0005B025E026202650269026C0270027302FA
:100EB00076027A027D028102840288028B028F020E
:100EC000930296029A029D02A102A502A802AC0218
:100ED000B002B302B702BB02BE02C202C602CA021D
:100EE000CD02D102D502D902DD02E002E402E8021D
:100EF000EC02F002F402F802FC020003040308030F
:100F00000C031003140318031C03200324032803F9
:100F10002C033003340338033C03410345034903E6
:100F20004D03510356035A035E03620367036B03C9
:100F30006F03740378037C03810385038A038E03A4
:100F4000920397039B03A003A403A903AD03B20379
:100F5000B603BB03C003C403C903CD03D203D70345
:100F6000DB03E003E503E903EE03F303F803FC030B
:100F7000010406040B041004150419041E042304C0
:100F800028042D04320437043C04410446044B0475
:100F9000500455045A045F04640469046E04730425
:100FA00079047E04830488048D04930498049D04CA
:100FB000A204A804AD04B204B804BD04C204C80469
:100FC000CD04D304D804DD04E304E804EE04F30400
:100FD000F904FE0404050A050F0515051A05200588
:100FE00026052B05310537053D05420548054E050B
:100FF000540559055F0565056B05710577057D0588
:10100000820588058E0594059A05A005A605AC0500
:10101000B205B805BF05C505CB05D105D705DD056A
:10102000E305EA05F005F605FC05030609060F06CB
:1010300016061C06220629062F0635063C06420621
:1010400049064F0656065C06630669067006770673
:101050007D0684068A06910698069E06A506AC06BD
:10106000B306B906C006C706CE06D506DB06E206FD
:10107000E906F006F706FE0605070C0713071A0730
:10108000210728072F0736073D0744074B0753075B
:101090005A07610768076F0777077E0785078D077F
:1010A00094079B07A307AA07B107B907C007C8079A
:1010B000CF07D707DE07E607ED07F507FC070408AB
:1010C0000C0813081B0823082A0832083A084108AC
:1010D00049085108590861086808700878088008AC
:1010E000880890089808A008A808B008B808C008A0
:1010F000C808D008D808E008E908F108F90801098B
:10110000090912091A0922092B0933093B09440963
:101110004C0954095D0965096E0976097F0987093B
:1011200090099809A109AA09B209BB09C409CC0907
:10113000D509DE09E709EF09F809010A0A0A130AC5
:101140001B0A240A2D0A360A3F0A480A510A5A0A7B
:10115000630A6C0A750A7E0A880A910A9A0AA30A27
:10116000AC0AB50ABF0AC80AD10ADB0AE40AED0ACA
:10117000F70A000B090B130B1C0B260B2F0B390B5B
:10118000420B4C0B550B5F0B690B720B7C0B860BE8
:101190008F0B990BA30BAD0BB60BC00BCA0BD40B6B
:1011A000DE0BE80BF10BFB0B050C0F0C190C230CE1
:1011B0002D0C380C420C4C0C560C600C6A0C740C48
:1011C0007F0C890C930C9D0CA80CB20CBC0CC70CAA
:1011D000D10CDC0CE60CF00CFB0C050D100D1B0DFE
:1011E000250D300D3A0D450D500D5A0D650D700D44
:1011F0007B0D850D900D9B0DA60DB10DBB0DC60D84
:10120000D10DDC0DE70DF20DFD0D080E130E1E0EB7
:101210002A0E350E400E4B0E560E610E6D0E780ED8
:10122000830E8F0E9A0EA50EB10EBC0EC80ED30EF5
:10123000DE0EEA0EF60E010F0D0F180F240F2F0F02
:101240003B0F470F530F5E0F6A0F760F820F8D0F04
:10125000990FA50FB10FBD0FC90FD50FE10FED0FFE
:10126000F90FFF0FFF0FFF0FFF0FFF0F00000A0026
:1012700014001E00280033003D00470051005B00B1
:101280006600660066006700670068006800690025
:10129000690069006A006A006B006B006C006C00FA
:1012A0006D006D006D006E006E006F006F007000CD
:1012B00070007100710071007200720073007300A1
:1012C0007400740075007500750076007600770074
:1012D0007700780078007900790079007A007A0048
:1012E0007B007B007C007C007D007D007D007E001B
:1012F0007E007F007F0080008000810081008100EF
:1013000082008200830083008400840085008500C1
:101310008500860086008700870088008800890095
:10132000890089008A008A008B008B008C008C0069
:101330008D008D008D008E008E008F008F0090003C
:101340009000910091009100920092009300930010
:1013500094009400950095009500960096009700E3
:101360009700980098009900990099009A009A00B7
:101370009B009B009C009C009C009D009D009E008B
:101380009E009F009F00A000A000A000A100A1005F
:10139000A200A200A300A300A400A400A400A50032
:1013A000A500A600A600A700A700A800A800A80006
:1013B000A900A900AA00AA00AB00AB00AC00AC00D9
:1013C000AC00AD00AD00AE00AE00AF00AF00B000AD
:1013D000B000B000B100B100B200B200B300B30081
:1013E000B400B400B400B500B500B600B600B70054
:1013F000B700B800B800B800B900B900BA00BA0028
:10140000BB00BB00BC00BC00BC00BD00BD00BE00FA
:10141000BE00BF00BF00C000C000C000C100C100CE
:10142000C200C200C300C300C400C400C400C500A1
:10143000C500C600C600C700C700C800C800C80075
:10144000C900C900CA00CA00CB00CB00CC00CF0045
:10145000D200D600D900DD00E000E300E700EA009A
:10146000EE00F100F400F800FB00FF0043204C20E8
:1014700025640A00430025630000D9CFE5FFE1CFD2
:10148000D9FF00C0E5FF01C0E5FF02C0E5FF03C0D2
:10149000E5FF04C0E5FF05C0E5FF06C0E5FF07C0A6
:1014A000E5FF08C0E5FF09C0E5FF0AC0E5FF0BC086
:1014B000E5FF0CC0E5FF0DC0E5FF0EC0E5FF0FC066
:1014C000E5FF10C0E5FF11C0E5FF12C0E5FF13C046
:1014D000E5FF14C0E5FF15C0E5FF16C0E5FF17C026
:1014E000E5FF18C0E5FF19C0E5FF1AC0E5FF1BC006
:1014F000E5FF1CC0E5FF1DC0E5FF1EC0E5FF020EB5
:10150000DBCF00F0030EDBCF01F0040EDBCF02F0E7
:10151000050EDBCF03F0060EDBCF04F0070EDBCFAA
:1015200005F0080EDBCF06F0090EDBCF07F00A0E40
:10153000DBCF08F0096A0A6A02C00DF00D50800A7C
:101540000DE102500601E36F0150E26F0050E16FC0
:10155000060E016EE10E006E800E026E03C0E9FF02
:1015600004C0F3FF0550EAEC3EF00B6E0B50D8B40C
:10157000F3EF0DF00B50250A02E0DAEF0DF00C6AE4
:101580000D6A0E6A0F6A106A0A0E116E126A136AE9
:10159000146A200E156E1668176A2B0E186E032A31
:1015A00002E3044A052A03C0E9FF04C0F3FF055023
:1015B000EAEC3EF0196E250A13E11950E56E02506F
:1015C000E56E0150E56E0050E56E8BEC2DF0040EDB
:1015D000E126094A0A2A032A02E3044A052ABED759
:1015E0001950300A06E1300E156E032A02E3044A50
:1015F000052A03C0E9FF04C0F3FF0550EAEC3EF002
:101600002D0A06E1010E146E032A02E3044A052A9C
:1016100003C0E9FF04C0F3FF0550EAEC3EF0200AE6
:1016200008E1010E176E200E186E032A02E3044A29
:10163000052A03C0E9FF04C0F3FF0550EAEC3EF0C1
:101640002B0A06E1010E176E032A02E3044A052A5B
:1016500003C0E9FF04C0F3FF0550EAEC3EF0196E49
:10166000310E195C2BE33A0E195C28E203C019F025
:1016700004C01AF005C01BF019C0E9FF1AC0F3FF3F
:101680001B50EAEC3EF01C6E300E1C5C11E33A0E6F
:101690001C5C0EE213500A0DF3CF1DF01C501D26EA
:1016A000D00E1D24136E192A02E31A4A1B2AE4D70E
:1016B00019C003F01AC004F01BC005F003C0E9FF15
:1016C00004C0F3FF0550EAEC3EF02E0A2DE1032A98
:1016D00002E3044A052A166A03C019F004C01AF08E
:1016E00005C01BF019C0E9FF1AC0F3FF1B50EAEC5C
:1016F0003EF01C6E300E1C5C11E33A0E1C5C0EE2D8
:1017000016500A0DF3CF1DF01C501D26D00E1D24BF
:10171000166E192A02E31A4A1B2AE4D719C003F0ED
:101720001AC004F01BC005F003C0E9FF04C0F3FFBA
:101730000550EAEC3EF0196E6C0A07E1010E0C6EE2
:10174000032A02E3044A052A09D01950680A06E16F
:10175000010E0E6E032A02E3044A052A03C0E9FFC4
:1017600004C0F3FF0550EAEC3EF0750A06E1010EF5
:10177000106E032A02E3044A052A03C0E9FF04C0ED
:10178000F3FF0550EAEC3EF0196E730A05E1010E15
:101790000D6E200E156E3FD01950780A03E1100E21
:1017A000116E39D01950580A05E1100E116E010E54
:1017B000126E31D01950630A02E1116A2CD019500F
:1017C0006F0A03E1080E116E26D01950660A03E174
:1017D000010E0F6E20D01950640A1DE01950690ADD
:1017E0001AE0105005E0FF0E03260422052213D054
:1017F0001950E56E0250E56E0150E56E0050E56E41
:101800008BEC2DF0040EE126094A0A2A032A02E392
:10181000044A052AA3D60D5021E00650030F0D6E91
:10182000000E0720196E000E08201A6E0DC006F07B
:1018300019C007F01AC008F0FD0E0D26FF0E192280
:101840001A220DC0E9FF19C0F3FF1A5072EC3DF0E7
:101850000D6EF3CF19F0F4CF1AF0FDD00F500DE05C
:10186000000E1A6E1C0E196E6E0E0D6E040E0626FC
:10187000000E072208221668EED016680C5023E0EE
:101880000650040F0C6E000E07200F6E000E08208D
:101890001B6E0CC006F00FC007F01BC008F0FC0E5A
:1018A0000C26FF0E0F221B220CC0E9FF0FC0F3FF16
:1018B0001B50F8EC3CF00C6EF3CF0FF0F4CF1BF0A4
:1018C000E9CF1CF067D00E502FE00650020F0E6ECD
:1018D000000E07201D6E000E08201E6E0EC006F0C2
:1018E0001DC007F01EC008F0FE0E0E26FF0E1D22C2
:1018F0001E220EC0E9FF1DC0F3FF1E505FEC3EF03C
:101900000E6E0EC00CF00F6A1B6A1C6A11500A0A98
:1019100003E11050D8B43ED00C500E6E0EC00CF047
:101920000F6A1B6A1C6A36D00650020F0E6E000E3C
:1019300007201D6E000E08201E6E0EC006F01DC092
:1019400007F01EC008F0FE0E0E26FF0E1D221E22FE
:101950000EC0E9FF1DC0F3FF1E505FEC3EF00E6E9F
:10196000F3CF1DF00EC00CF01DC00FF0E86A1DBED5
:10197000FF0E1B6E1C6E11500A0A02E110500AE0A5
:101980000C500E6E0F501D6E0EC00CF01DC00FF0EF
:101990001B6A1C6A060E196E930E0D6E800E1A6E6F
:1019A0001150D8B440D0105013E01150E56E060E1F
:1019B000E56E930EE56E1C50E56E1B50E56E0F5004
:1019C000E56E0C50E56E42EC24F0070EE12612D0D5
:1019D0001150E56E060EE56E930EE56E1C50E56E39
:1019E0001B50E56E0F50E56E0C50E56E2CEC32F09E
:1019F000070EE12617502FE00DC0E9FF19C0F3FFD5
:101A00001A50EAEC3EF02D0A26E0FF0E0D261922B0
:101A10001A2218C0E5FF0DC0E9FF19C0F3FF1A50E4
:101A200057EC3FF018D00CC0E5FF0DC0E9FF19C01E
:101A3000F3FF1A5057EC3FF00D50010F0C6E000EE3
:101A400019200E6E000E1A20E56A0CC0E9FF0EC0C8
:101A5000F3FF57EC3FF00DC00CF019C00EF01AC0A8
:101A60000FF013C010F0105010E00CC0E9FF0EC0D2
:101A7000F3FF0F50EAEC3EF0176E175006E00C2A09
:101A800002E30E4A0F2A1006EED710C013F01450CE
:101A90001EE109C00CF00AC00EF010C00FF00F508C
:101AA00010E01550E56E0250E56E0150E56E0050F5
:101AB000E56E8BEC2DF0040EE1260C4A0E2A0F0683
:101AC000EED70CC009F00EC00AF00FC013F016C01C
:101AD0000CF00DC00DF019C00EF01AC00FF009C0C7
:101AE00010F00AC015F00DC0E9FF0EC0F3FF0F5053
:101AF000EAEC3EF0166E1650D8B43ED00CC016F08C
:101B0000176A161E171E1650171005E00CC016F0A7
:101B10000C06165031E00DC0E9FF0EC0F3FF0F5068
:101B2000EAEC3EF0116E125010E01150E56E06EC3A
:101B30003EF0166EE652165004E0DF0E1114166EDB
:101B400002D011C016F016C011F01150E56E02500F
:101B5000E56E0150E56E0050E56E8BEC2DF0040E45
:101B6000E1260D2A02E30E4A0F2A104A152A1350C5
:101B7000D8B4B9D71306B7D710C009F015C00AF00A
:101B800014502BE010C00CF015C00DF013C00EF077
:101B90000E501FE0200EE56E0250E56E0150E56E1E
:101BA0000050E56E8BEC2DF0040EE1260C4A0D2A58
:101BB0000E06EED70B50E56E0250E56E0150E56E55
:101BC0000050E56E8BEC2DF0040EE126094A0A2A3E
:101BD00004D00CC009F00DC00AF0032A02E3044A45
:101BE000052AAEEF0AF00AC0F3FF0950E4CF1EF059
:101BF000E4CF1DF0E4CF1CF0E4CF1BF0E4CF1AF0EB
:101C0000E4CF19F0E4CF18F0E4CF17F0E4CF16F0EA
:101C1000E4CF15F0E4CF14F0E4CF13F0E4CF12F0EA
:101C2000E4CF11F0E4CF10F0E4CF0FF0E4CF0EF0EA
:101C3000E4CF0DF0E4CF0CF0E4CF0BF0E4CF0AF0EA
:101C4000E4CF09F0E4CF08F0E4CF07F0E4CF06F0EA
:101C5000E4CF05F0E4CF04F0E4CF03F0E4CF02F0EA
:101C6000E4CF01F0E4CF00F0E4CFD9FF12003C4E06
:101C70004F20464C4F41543E0000D9CFE5FFE1CF05
:101C8000D9FF00C0E5FF01C0E5FF02C0E5FF03C0CA
:101C9000E5FF04C0E5FF05C0E5FF06C0E5FF07C09E
:101CA000E5FF08C0E5FF09C0E5FF0AC0E5FF0BC07E
:101CB000E5FF0CC0E5FF0DC0E5FF020EDBCF00F035
:101CC000030EDBCF01F0040EDBCF02F00050090F52
:101CD000066E000E0120076E000E0220086E0B6ECD
:101CE00007500A6E0650096EE56A0D0EE56E0B5040
:101CF000E56E0A50E56E0950E56E800EE56E040E45
:101D0000E56E2B0EE56E1FEC2FF0080EE12600C0ED
:101D100009F001C00AF002C00BF0E56AE56E0B5055
:101D2000E56E0A50E56E0950E56E800EE56E040E14
:101D3000E56E810EE56E1FEC2FF0080EE12681C4E2
:101D400003F00350010A04E00350030A01E018D134
:101D500006018D51036E8E51046E04013351056EE0
:101D60003451096E0550035C0601E86F09500458B0
:101D7000E96F06018D510401336F06018E51040194
:101D8000346F06018F510401356F06019051040133
:101D9000366F0601E851E911D8A47ED04AEC3BF039
:101DA000036EF3CF04F0F4CF05F0E9CF09F006019C
:101DB00085510A6E86510B6E87510C6E88510D6EDF
:101DC0000A50035E0B50045A0C50055A0D50095A24
:101DD00003500601AB6F0450AC6F0550AD6F7F0E22
:101DE0000914AE6F040137B125D00601AC35AE3110
:101DF000046EAD31036E043404320332000E04BEAF
:101E0000FF0E096E056E86C40AF00B6A0C6A0D6A35
:101E10000D50800FF36E0950800FF35C08E1055000
:101E20000C5C05E104500B5C02E103500A5C02E229
:101E300004013781040137B149D02FC403F030C405
:101E400004F031C405F032C409F00601AE51800F30
:101E5000F36E0950800FF35C08E10550AD5D05E1BC
:101E60000450AC5D02E10350AB5D08E203C0ABF689
:101E700004C0ACF605C0ADF609C0AEF6060191A3EC
:101E800004D0010E036E046A02D00368046803C024
:101E9000E8F604C0E9F61AD00401379189C6ABF61A
:101EA0008AC6ACF68BC6ADF68CC6AEF60601AB5153
:101EB00004012F6F0601AC510401306F0601AD51D2
:101EC0000401316F0601AE510401326F0601AE51BB
:101ED000800F800F08E1000EAD5D05E1000EAC5DE6
:101EE00002E1010EAB5D06E20601AF6BB06BB16BB8
:101EF000B26B46D00601AB51036EAC51046EAD51CE
:101F0000056EAE51E56E0550E56E0450E56E03506A
:101F1000E56E010EE56E000EE56AE56AE56A6EECB7
:101F20002CF0036EF3CF04F0F4CF05F0E9CF09F005
:101F3000080EE126E8C60AF0E9C60BF0E86A0601D9
:101F4000E9BFFF0E0C6E0D6E0950E56E0550E56E93
:101F50000450E56E0350E56E0D50E56E0C50E56ED5
:101F60000B50E56E0A50E56E3FEC22F00601AF6FB4
:101F7000F3CFB0F6F4CFB1F6E9CFB2F6080EE12612
:101F8000020E0401815DD8A049D1060191A146D17C
:101F90000050230F036E000E0120046E000E02207D
:101FA000E56E0450E56E0350E56E0EEC00F0030E96
:101FB000E1260050230F036E000E0120046E000E78
:101FC0000220056E020E0326000E0422052203C025
:101FD000E9FF04C0F3FF0550F8EC3CF0036EF3CFCB
:101FE00004F0F4CF05F0E9CF09F0033604360336E8
:101FF00004360334030B0418041A0418036E055046
:10200000E844E844FC0B0412053609360536093667
:102010000534030B05B0FC090918091A0918056EE7
:1020200006018D51035C0601B36F06018E51045801
:102030000601B46F06018F5105580601B56F060100
:10204000905109580601B66FD880B6AFD89022E3F8
:102050000401831D046E821D036E034A042AE86A8C
:1020600004BEFF0E056E096E0601B651800FF36EB9
:102070000950800FF35C08E10550B55D05E104509F
:10208000B45D02E10350B35D05E30601B36BB46BCD
:10209000B56BB66B0601B651800F800F08E1000EDC
:1020A000B55D05E1000EB45D02E1010EB35D1EE316
:1020B00082C403F083C404F0E86A040183BFFF0E06
:1020C000056E800FF36E0601B651800FF35C08E1D8
:1020D000B551055C05E1B451045C02E1B351035C08
:1020E00005E30601B36BB46BB56BB66B04018751A6
:1020F00009E0E86CD8900601B337B437B537B63786
:10210000010FF9E30601B651800F800F08E1000EC0
:10211000B55D05E1800EB45D02E1000EB35D07E33D
:102120000601B3697F0EB46FB56BB66B14D00601B0
:10213000B651800F810F08E1FF0EB55D05E1800EFD
:10214000B45D02E1000EB35D06E20601B36B800EE2
:10215000B46FB569B6690050330F036E000E0120ED
:10216000046E000E0220056E0601B351096EB451D3
:10217000E56E0950E56E0550E56E0450E56E0350BE
:10218000E56EF6EC16F0050EE12604018151030A16
:1021900023E10050330F036E000E0120046E000E89
:1021A0000220056E0B0E0326000E0422052203C03A
:1021B000E9FF04C0F3FF0550F8EC3CF0F3CF04F066
:1021C000F4CF05F00450036E0550046E0350040173
:1021D0002B6F04502C6F22D00050330F036E000E73
:1021E0000120046E000E0220056E0B0E0326000E69
:1021F0000422052203C0E9FF04C0F3FF0550F8ECF8
:102200003CF0F3CF04F0F4CF05F00450036E05501A
:10221000046E035004012D6F04502E6F81C403F02F
:102220000350010A04E00350030A01E07DD02BC4EF
:1022300003F02CC404F0E86A04012CBFFF0E056E05
:10224000096E0601AF51035C0601B36F0601B05180
:1022500004580601B46F0601B15105580601B56F67
:102260000601B25109580601B66F800F800F08E1D0
:10227000000EB55D05E1800EB45D02E1000EB35DB8
:1022800007E30601B3697F0EB46FB56BB66B14D06C
:102290000601B651800F810F08E1FF0EB55D05E123
:1022A000800EB45D02E1000EB35D06E20601B36B81
:1022B000800EB46FB569B6690050440F036E000E0E
:1022C0000120046E000E0220056E0601B351096E56
:1022D000B451E56E0950E56E0550E56E0450E56EAB
:1022E0000350E56EF6EC16F0050EE126440E0026CE
:1022F000000E012202220B0E0026000E01220222F5
:1023000000C0E9FF01C0F3FF0250F8EC3CF0F3CF4E
:1023100001F0F4CF02F00150006E0250016E005047
:1023200004012D6F01502E6F0850086EE56A0D0EE6
:10233000E56E800EE56E040EE56E2B0EE56E085020
:10234000E56E0750E56E0650E56E1FEC2FF0080EA7
:10235000E126E4CF0DF0E4CF0CF0E4CF0BF0E4CFB6
:102360000AF0E4CF09F0E4CF08F0E4CF07F0E4CFBF
:1023700006F0E4CF05F0E4CF04F0E4CF03F0E4CFBF
:1023800002F0E4CF01F0E4CF00F0E4CFD9FF120077
:1023900025642025640A000000C0E5FF01C0E5FFB8
:1023A00002C0E5FF03C0E5FF04C0E5FF05C0E5FF8F
:1023B00006C0E5FF87EC29F0B5EC1CF087EC29F0AE
:1023C0004AEC3BF0006EF3CF01F0F4CF02F0E9CF1E
:1023D00003F004017C51005E7D51015A7E51025A86
:1023E0007F51035A039E3F0E035C08E1FF0E025C1F
:1023F00005E1FF0E015C02E1FF0E005CD8B0B4EF16
:1024000014F04AEC3BF0F3CF01F0F4CF02F0E9CF47
:1024100003F0880F04017C6F130E01207D6F000E06
:1024200002207E6F000E03207F6F07C0E5FFF2CF12
:1024300007F0F29E0401A9510601856F0401AA511B
:102440000601866F0401AB510601876F0401AC5190
:102450000601886F0401AD510601896F0401AE5178
:1024600006018A6F0401AF5106018B6F0401B05160
:1024700006018C6F0401B15106018D6F0401B25148
:1024800006018E6F0401B35106018F6F0401B45130
:102490000601906F0401B5510601916F0401AD6B07
:1024A000AE6BAF6BB06B07BEF28EE4CF07F0800E61
:1024B000E56E040EE56E930EE56E3DEC0EF0030E38
:1024C000E1269EC4EAF69FC4EBF60601EB51800FAD
:1024D0007C0F02E1000EEA5D04E30601EA69030EE7
:1024E000EB6F0601EB51800F840F02E1010EEA5DF4
:1024F00005E2010E0601EA6FFC0EEB6F0601EB51DF
:10250000800F800F02E1010EEA5D10E30601EB513E
:10251000800FF36E04019751800FF35C03E1965135
:102520000601EA5D03E20601EA6BEB6BD880060167
:10253000EBAFD89015E30401971D016E961D006E58
:10254000004A012A0150800FF36E0601EB51800F03
:10255000F35C02E1EA51005C03E20601EA6BEB6B1B
:1025600004019AA309D0B5A507D0D8800601EBAF26
:10257000D89002E3EA6BEB6BD8800601EBAFD89002
:1025800007E3EA51FF0F006E030EEB21016E04D04A
:10259000EAC600F0EBC601F000C0ECF601C0EDF6B3
:1025A0000601EC51020BE840010BE838E844F46EF8
:1025B000BD50DF0BF410BD6EEC51010B010BE83880
:1025C000F46EBD50EF0BF410BD6EED35ED31016EC4
:1025D000EC31006E0134013200320050BE6ED88002
:1025E0000601EBAFD89002E3898C01D0899C07C02B
:1025F000E5FFF2CF07F0F29E060116510601856F46
:10260000060117510601866F060118510601876FF2
:10261000060119510601886F06011A510601896FDA
:1026200006011B5106018A6F06011C5106018B6FC2
:1026300006011D5106018C6F06011E5106018D6FAA
:1026400006011F5106018E6F0601205106018F6F92
:10265000060121510601906F060122510601916F7A
:1026600006011A6B1B6B1C6B1D6B07BEF28EE4CF51
:1026700007F0800EE56E060EE56E000EE56E3DEC91
:102680000EF0030EE1260BC6EAF60CC6EBF60601C9
:10269000EB51800F7C0F02E1000EEA5D04E30601BE
:1026A000EA69030EEB6F0601EB51800F840F02E124
:1026B000010EEA5D05E2010E0601EA6FFC0EEB6F0A
:1026C0000601EB51800F800F02E1010EEA5D10E37D
:1026D0000601EB51800FF36E06010451800FF35C8D
:1026E00003E103510601EA5D03E20601EA6BEB6BCD
:1026F000D8800601EBAFD89015E30601041D016EEA
:10270000031D006E004A012A0150800FF36E06017E
:10271000EB51800FF35C02E1EA51005C03E2060139
:10272000EA6BEB6B060107A309D022A507D0D8807E
:102730000601EBAFD89002E3EA6BEB6BD8800601A1
:10274000EBAFD89007E3EA51FF0F006E030EEB21C9
:10275000016E04D0EAC600F0EBC601F000C0ECF652
:1027600001C0EDF60601EC51020BE840010BE83820
:10277000E844F46E6650DF0BF410666EEC51010B0A
:10278000010BE838F46E6650EF0BF410666EED3511
:10279000ED31016EEC31006E013401320032005037
:1027A000676ED8800601EBAFD89002E3898E01D026
:1027B000899E1EEC25F087EC29F01EEC25F087ECB5
:1027C00029F0006A0401035105E00050016E080E73
:1027D000012602D000C001F00150100DF450036E2C
:1027E000F3CF02F0000E0226010E03220350056E05
:1027F0000250046E800EE56E0550E56E0450E56EE5
:102800000EEC00F0030EE126020E0226D8B0032AD9
:1028100002C0E9FF03C0EAFFEECF02F0EECF03F003
:10282000EECF04F0EFCF05F0023603360236033662
:102830000234030B0318031A0318026E0450E84411
:10284000E844FC0B0312043605360436053604341E
:10285000030B04B0FC090518051A0518D88003AE4F
:10286000D89002E3026A036A0350800F7C0F02E1F2
:10287000000E025C03E30268030E036E015021E1C7
:102880000350E56E0250E56EE56A020EE56EB0ECAF
:1028900035F0046EF3CF05F0040EE126066A6C0EE7
:1028A00004260A0E0522000E062204C0F6FF05C00B
:1028B000F7FF06C0F8FF0900F5CF36FF0900F5CF96
:1028C00037FF0350E56E0250E56EE56A020EE56ED5
:1028D000B0EC35F0026EF3CF03F0040EE126046A8B
:1028E0006C0E02260A0E0322000E042202C0F6FF1E
:1028F00003C0F7FF04C0F8FF0900F5CF02F009009C
:10290000F5CF03F00350E56E0250E56E0150E56E21
:10291000400EE56EA1EC2FF0040EE126002A080E11
:10292000005CD8A04FD704010351D880E866D89046
:10293000006A00360050036F01C400F00107005028
:1029400013E100C401F40601FA2B0F013751E56EC3
:102950003651E56E000EE56E140EE56E6C0EE56EFA
:10296000B3EC37F0050EE126E4CF06F0E4CF05F036
:10297000E4CF04F0E4CF03F0E4CF02F0E4CF01F0C1
:10298000E4CF00F0120000C0E5FF01C0E5FF02C087
:10299000E5FF03C0E5FF04C0E5FF05C0E5FFA7ECC8
:1029A0003FF08A98899C8B84040189859398929C36
:1029B0009494040192959283800E006E040E016E31
:1029C0000F0E036E380E0026035001220F0E036E09
:1029D000800E005E0350015A800E026E040E036EDC
:1029E0000F0E056E380E0226055003220F0E056EDF
:1029F000800E025E0550035A02C0E9FF03C0EAFFE1
:102A0000EFCF02F0029200C0E9FF01C0EAFF02C06E
:102A1000EFFF9281800E006E040E016E0F0E036EAA
:102A2000380E0026035001220F0E036E800E005E4A
:102A30000350015A800E026E040E036E0F0E056ED7
:102A4000380E0226055003220F0E056E800E025E20
:102A50000550035A02C0E9FF03C0EAFFEFCF02F0BE
:102A6000029000C0E9FF01C0EAFF02C0EFFF9281BF
:102A7000800E006E040E016E0F0E036E380E0026DF
:102A8000035001220F0E036E800E005E0350015AA8
:102A9000800E026E040E036E0F0E056E380E0226B7
:102AA000055003220F0E056E800E025E0550035A7C
:102AB00002C0E9FF03C0EAFFEFCF02F0029000C0BE
:102AC000E9FF01C0EAFF02C0EFFF0C0EBD6EBD9A28
:102AD000BD98BE6AB96AB9860401936B020E946F01
:102AE000956B0A0E966F976B100E986F070E996F85
:102AF0009A919A83800EE56E040EE56EB60EE56E31
:102B00000BEC35F0030EE126800EE56E040EE56E4B
:102B1000D70EE56E49EC2BF0030EE126800EE56E34
:102B2000040EE56EC60EE56E49EC2BF0030EE126B1
:102B30000401B16BB26BB36BB46BB591B5959C6B83
:102B40009D6B9E6B9F6BA46BA56BA66BA76B8A9608
:102B5000899E8B80040189859396929E94900401AE
:102B600092959283800E006E040E016E0F0E036E1E
:102B7000380E0026035001220F0E036E800E005EF9
:102B80000350015A800E026E040E036E0F0E056E86
:102B9000380E0226055003220F0E056E800E025ECF
:102BA0000550035A02C0E9FF03C0EAFFEFCF02F06D
:102BB000029200C0E9FF01C0EAFF02C0EFFF92816C
:102BC000800E006E040E016E0F0E036E380E00268E
:102BD000035001220F0E036E800E005E0350015A57
:102BE000800E026E040E036E0F0E056E380E022666
:102BF000055003220F0E056E800E025E0550035A2B
:102C000002C0E9FF03C0EAFFEFCF02F0029000C06C
:102C1000E9FF01C0EAFF02C0EFFF9281800E006E63
:102C2000040E016E0F0E036E380E002603500122B3
:102C30000F0E036E800E005E0350015A800E026E6E
:102C4000040E036E0F0E056E380E02260550032289
:102C50000F0E056E800E025E0550035A02C0E9FF9A
:102C600003C0EAFFEFCF02F0029000C0E9FF01C00D
:102C7000EAFF02C0EFFF0C0E666E669A6698676AFE
:102C80000601006B020E016F026B0A0E036F046BEC
:102C9000100E056F070E066F07910783800EE56E15
:102CA000060EE56E230EE56E0BEC35F0030EE12605
:102CB000800EE56E060EE56E440EE56E49EC2BF0D7
:102CC000030EE126800EE56E060EE56E330EE56E10
:102CD00049EC2BF0030EE12606011E6B1F6B206BE7
:102CE000216B22912295096B0A6B0B6B0C6B116B9C
:102CF000126B136B146B17EC2EF0270EE56EE56A62
:102D0000080EE56EB4EC2AF0030EE126400EE56EE7
:102D100089EC3CF0E6528FEC32F06CEC3FF0006A4C
:102D20000050100DF450026EF3CF01F0000E01269A
:102D3000010E02220250046E0150036E800EE56EF9
:102D40000450E56E0350E56E0BEC35F0030EE12602
:102D50000150060F036E000E0220046E03C0E9FF4F
:102D600004C0EAFFA00EEE6E0F0EEF6E01500C0FC6
:102D7000036E000E0220046E03C0E9FF04C0EAFFE8
:102D8000A00EEE6E0F0EEF6E0E0E0126D8B0022AC8
:102D900001C0E9FF02C0EAFFA00EEE6E0F0EEF6E5B
:102DA000002A100E005CD8A0BBD74AEC3BF0F3CF52
:102DB00001F0F4CF02F0E9CF03F0880F04017C6F3B
:102DC000130E01207D6F000E02207E6F000E032087
:102DD0007F6FE4CF05F0E4CF04F0E4CF03F0E4CF5D
:102DE00002F0E4CF01F0E4CF00F01200D9CFE5FF0C
:102DF000E1CFD9FF00C0E5FF01C0E5FF02C0E5FF5C
:102E000003C0E5FF04C0E5FF05C0E5FF06C0E5FF20
:102E100007C0E5FF08C0E5FF09C0E5FF0AC0E5FF00
:102E20000BC0E5FF020EDBCF00F0030EDBCF01F09D
:102E3000040EDBCF02F0050EDBCF03F0060EDBCF76
:102E400004F002500A6E0150096E0050086EE56AE7
:102E5000110EE56E0A50E56E0950E56E0850E56EFC
:102E6000800EE56E040EE56EE80EE56E1FEC2FF0A9
:102E7000080EE126F7C405F0F8C406F0E86A04017C
:102E8000F8BFFF0E076E0601BE6F0650BD6F0550FE
:102E9000BC6FBB6B03C005F004C006F0E86A04BE5B
:102EA000FF0E076E086EE8C409F0E56AE56AE56A98
:102EB0000950E56E0850E56E0750E56E0650E56E68
:102EC0000550E56E3FEC22F00601B76FF3CFB8F680
:102ED000F4CFB9F6E9CFBAF6080EE1260401E951BC
:102EE000D8B4AFD00450800F800F02E1010E035C14
:102EF00025E30401EE51800F7C0F08E1000EED5D2B
:102F000005E1000EEC5D02E1000EEB5D17E204014D
:102F1000F651800FF36E0601BE51800FF35C0DE198
:102F2000BD510401F55D09E10601BC510401F45DE8
:102F300004E10601BB510401F35D33E3D88004AE24
:102F4000D890D8A043D00401EE51800F840F08E13F
:102F5000000EED5D05E1000EEC5D02E1010EEB5DA2
:102F600035E30601BE1D0A6EBD1D096EBC1D046E53
:102F7000BB1D036E032A04E1042A02E1094A0A2A5E
:102F80000A50800FF36E0401F651800FF35C08E1E4
:102F9000F551095C05E1F451045C02E1F351035C75
:102FA00015E205500401EB25036E0650EC21046E7A
:102FB0000750ED21096E0850EE210A6E0350EB6FA9
:102FC0000450EC6F0950ED6F0A50EE6F0401EB39BD
:102FD0000F0B036EEC39046EF00B041A0326ED514F
:102FE000E838F00B0412ED390F0B096EEE390A6E5A
:102FF000F00B0A1A0926F00E0AB60A26E9C40BF0ED
:10300000E56AE56AE56A0B50E56E0A50E56E09501F
:10301000E56E0450E56E0350E56E3FEC22F0036E62
:10302000F3CF04F0F4CF09F0E9CF0AF0080EE1265F
:1030300003500601B7270450B8230950B9230A509A
:10304000BA230401EA51D8B465D0EF51055C0601FA
:10305000BF6F0401F05106580601C06F0401F15121
:1030600007580601C16F0401F25108580601C26FEA
:10307000800F800F08E1010EC15D05E1000EC05D0B
:1030800002E1000EBF5D06E30601BF69C069C16BC6
:10309000C26B13D00601C251800F810F08E1FF0EF1
:1030A000C15D05E1000EC05D02E1000EBF5D05E2FD
:1030B0000601BF6BC06BC169C2690601BF51BF2564
:1030C000036EC035046EC135096EC2350A6EEAC49E
:1030D0000BF0E56AE56AE56A0B50E56E0A50E56EAD
:1030E0000950E56E0450E56E0350E56E3FEC22F0AA
:1030F000036EF3CF04F0F4CF09F0E9CF0AF0080E25
:10310000E12603500601B7270450B8230950B9231C
:103110000A50BA2305500401EF6F0650F06F0750B4
:10312000F16F0850F26F0601BE51800FF36E060179
:10313000BA51800FF35C0DE1B9510601BD5D09E1A3
:103140000601B8510601BC5D04E10601B751060154
:10315000BB5D11E20601BB510401F36F0601BC51D6
:103160000401F46F0601BD510401F56F0601BE5163
:103170000401F66F3AD00601BE1D066EBD1D056E38
:10318000BC1D046EBB1D036E032A04E1042A02E188
:10319000054A062A0601BA51800FF36E0650800FC9
:1031A000F35C08E10550B95D05E10450B85D02E14A
:1031B0000350B75D0AE203500401F36F0450F46F4B
:1031C0000550F56F0650F66F10D00601B751040197
:1031D000F36F0601B8510401F46F0601B9510401FF
:1031E000F56F0601BA510401F66FE56A110EE56E3E
:1031F000800EE56E040EE56EE80EE56E0250E56E9B
:103200000150E56E0050E56E1FEC2FF0080EE12630
:10321000E4CF0BF0E4CF0AF0E4CF09F0E4CF08F0FC
:10322000E4CF07F0E4CF06F0E4CF05F0E4CF04F0FC
:10323000E4CF03F0E4CF02F0E4CF01F0E4CF00F0FC
:10324000E4CFD9FF1200D9CFE5FFE1CFD9FF00C00D
:10325000E5FF01C0E5FF02C0E5FF03C0E5FF04C0D4
:10326000E5FF05C0E5FF06C0E5FF07C0E5FF08C0B4
:10327000E5FF09C0E5FF0AC0E5FF020EDBCF00F065
:10328000030EDBCF01F0040EDBCF02F0036A046A09
:1032900074EC3BF0056EFE0A01E077D05EEC35F091
:1032A00074EC3BF0066E030E065CD8A05AD0060EF6
:1032B000065CD8B056D0FD0E0624076EFA6AFB6A8B
:1032C0000734FA36E834FA36FC0BDA0FE56E320EC4
:1032D000FA22000EFB22E450F96E73EF19F085EF2D
:1032E00019F09EEF19F00050090F076E000E012033
:1032F000086E000E022007C0E9FF08C0F3FF5FEC74
:103300003EF0036EF3CF04F02CD00050090F076E8F
:10331000000E0120086E000E0220096E020E072624
:10332000000E0822092207C0E9FF08C0F3FF095078
:103330005FEC3EF0036EF3CF04F013D00050070FA4
:10334000076E000E0120086E000E022007C0E9FF84
:1033500008C0F3FFEAEC3EF0010B076E07C003F074
:10336000046A06C007F00450E56E0350E56EE56A96
:103370000750E56E000EE56E230EE56E900EE56ECD
:10338000B3EC37F0070EE12640D1070E055CD8B04C
:103390003CD1FA6AFB6A0534FA36E834FA36FC0B9B
:1033A000B00FE56E330EFA22000EFB22E450F96EE8
:1033B000E6EF19F001EF1AF013EF1AF025EF1AF00B
:1033C00057EF1AF08DEF1AF0ACEF1AF00050230F00
:1033D000036E000E0120046E000E0220E56E045004
:1033E000E56E0350E56E4CEC1EF0030EE126020E76
:1033F000E56E00C0E9FF01C0F3FF025057EC3FF05B
:1034000004D10050330F036E000E0120046E000E35
:103410000220E56E0450E56E0350E56EE2EC1FF00D
:10342000030EE126F2D00050440F036E000E01207F
:10343000046E000E0220E56E0450E56E0350E56E4A
:10344000E2EC1FF0030EE126E0D00050090F036EFE
:10345000000E0120046E000E0220056E74EC3BF09D
:103460000A6E096AE56A0AC0F4FF03C0E9FF04C0F6
:10347000F3FF055034EC3FF074EC3BF0086A09268A
:1034800008500A2209C0E5FF0AC0F4FF03C0E9FFA3
:1034900004C0F3FF055034EC3FF0010EE56E00C0B0
:1034A000E9FF01C0F3FF025057EC3FF0AED00050EF
:1034B000090F036E000E0120046E000E0220056E3F
:1034C000020E0326000E0422052274EC3BF00A6E65
:1034D000096AE56A0AC0F4FF03C0E9FF04C0F3FF0C
:1034E000055034EC3FF074EC3BF0086A09260850B4
:1034F0000A2209C0E5FF0AC0F4FF03C0E9FF04C0C7
:10350000F3FF055034EC3FF0E56A00C0E9FF01C06D
:10351000F3FF025057EC3FF078D00050070F036ED6
:10352000000E0120046E000E0220056E74EC3BF0CC
:10353000010BF46E03C0E9FF04C0F3FF0550EAEC91
:103540003EF0FE0BF410E56E03C0E9FF04C0F3FF8C
:10355000055057EC3FF059D074EC3BF0066E00502C
:10356000160F036E000E0120046E000E0220056E81
:1035700003500C0F076E000E0420086E000E05208D
:10358000096E0650D880E866D8900A6A0A360A5052
:10359000D880E866D8900A6A0A360A50010BF46EA1
:1035A00007C0E9FF08C0F3FF0950EAEC3EF0FE0B4C
:1035B000F410E56E07C0E9FF08C0F3FF095057ECAF
:1035C0003FF00650010A21E1080E0326000E0422F6
:1035D0000522E56AF46AF66AF76A03C0E9FF04C0E7
:1035E000F3FF0550D9EC3EF0230E0026000E012219
:1035F0000222E56AE56A0250E56E0150E56E005070
:10360000E56E47EC28F0050EE126E4CF0AF0E4CFA2
:1036100009F0E4CF08F0E4CF07F0E4CF06F0E4CF00
:1036200005F0E4CF04F0E4CF03F0E4CF02F0E4CF00
:1036300001F0E4CF00F0E4CFD9FF120000C0E5FFB5
:1036400001C0E5FF02C0E5FFF0A23DD0F9C422F4BD
:10365000FAC423F4FBC424F4FCC425F4F09204015E
:10366000FD93FDB1FD838A92040189958995899521
:1036700089958995899589950401FDA303D0F1C6A3
:1036800000F002D0F0C600F000C00EF70401FDA368
:1036900005D0C5C600F0C6C601F004D0C3C600F010
:1036A000C4C601F000C0EEF601C0EFF60F014E9166
:1036B0000601EF510F01506F0601EE510F014F6FE0
:1036C0007E920F014E817EA249D10F014E917E92D2
:1036D0000EC700F000B4A1D000B24FD000B026D089
:1036E0008A820401FDA311D07DC60EF70EC702F039
:1036F00002B634D10001F1510F01506F0001F051B9
:103700000F014F6F0F014E8129D175C60EF70EC7FD
:1037100002F002B623D10001E1510F01506F000108
:10372000E0510F014F6F0F014E8118D104018985BF
:103730000401FDA311D07EC60EF70EC702F002B63B
:103740000DD10001F3510F01506F0001F2510F0133
:103750004F6F0F014E8102D176C60EF70EC702F0F1
:1037600002B6FCD00001E3510F01506F0001E2519D
:103770000F014F6F0F014E81F1D000B027D004012F
:1037800089850401FDA311D07FC60EF70EC702F094
:1037900002B6E4D00001F5510F01506F0001F45161
:1037A0000F014F6F0F014E81D9D077C60EF70EC7AC
:1037B00002F002B6D3D00001E5510F01506F0001B5
:1037C000E4510F014F6F0F014E81C8D0040189856C
:1037D0000401FDA311D080C60EF70EC702F002B699
:1037E000BDD00001F7510F01506F0001F6510F01DC
:1037F0004F6F0F014E81B2D078C60EF70EC702F0A0
:1038000002B6ACD00001E7510F01506F0001E65144
:103810000F014F6F0F014E81A1D000B250D000B008
:1038200027D0040189850401FDA311D081C60EF7BC
:103830000EC702F002B692D00001F9510F01506F8D
:103840000001F8510F014F6F0F014E8187D079C6EB
:103850000EF70EC702F002B681D00001E9510F0148
:10386000506F0001E8510F014F6F0F014E8176D06C
:10387000040189850401FDA311D082C60EF70EC78D
:1038800002F002B66BD00001FB510F01506F000136
:10389000FA510F014F6F0F014E8160D07AC60EF7BB
:1038A0000EC702F002B65AD00001EB510F01506F63
:1038B0000001EA510F014F6F0F014E814FD000B050
:1038C00027D0040189850401FDA311D083C60EF71A
:1038D0000EC700F000B642D00001FD510F01506F3D
:1038E0000001FC510F014F6F0F014E8137D07BC695
:1038F0000EF70EC700F000B631D00001ED510F01F8
:10390000506F0001EC510F014F6F0F014E8126D017
:10391000040189850401FDA311D084C60EF70EC7EA
:1039200000F000B61BD00001FF510F01506F0001E5
:10393000FE510F014F6F0F014E8110D07CC60EF764
:103940000EC700F000B60AD00001EF510F01506F12
:103950000001EE510F014F6F0F014E81E4CF02F0D5
:10396000E4CF01F0E4CF00F0120000C0E5FF01C099
:10397000E5FF02C0E5FF03C0E5FF04C0E5FF05C0A9
:10398000E5FF06C0E5FF07C0E5FF08C0E5FF09C089
:10399000E5FF0AC0E5FF0BC0E5FF0401FDA509D066
:1039A000006AFDB1002A016AFDB3012A0050011826
:1039B00001E059D10401FD95010E006E00C001F037
:1039C0000150D8B453D00104026E036A02BE0368EA
:1039D0008A0E0226040E032202C0E9FF03C0EAFF9A
:1039E000EFCF04F00450020DF450066EF3CF05F053
:1039F000650E0526060E062205C0E9FF06C0EAFF91
:103A0000EECF05F0EFCF06F08A0E0124076E086AAC
:103A1000040E082207C0E9FF08C0EAFFEFCF09F053
:103A20000950020DF4500B6EF3CF0AF0650E0A2612
:103A3000060E0B220AC0E9FF0BC0EAFFEECF0AF028
:103A4000EFCF0BF006500B5C02E105500A5C0EE272
:103A500002C0E9FF03C0EAFF09C0EFFF07C0E9FFAA
:103A600008C0EAFF04C0EFFF0106AAD7002A080E2B
:103A7000005CD8A0A3D7006A0401FDB1002A005061
:103A800003E1006A002A01D0006A016AF00E0026F4
:103A9000060E01228AC402F000C0E9FF01C0EAFF5D
:103AA00002C0EFFF006A0401FDB1002A005003E1EB
:103AB000006A002A01D0006A0050020DF450016E25
:103AC000F3CF00F0C30E0026060E012204018A5136
:103AD000020DF450036EF3CF02F0650E0226060EBF
:103AE000032202C0E9FF03C0EAFFEECF02F0EFCFEE
:103AF00003F00250FF08026EFF0E035600C0E9FFFC
:103B000001C0EAFF02C0EEFF03C0EFFF006A8A0EA9
:103B10000024016E026A040E022201C0E9FF02C005
:103B2000EAFFEFCF04F00401FDB105D00450016EAF
:103B3000080E0124046E750E0424016E026A060E3E
:103B400002220050036E032A056A03BE05688A0E2E
:103B50000326040E052203C0E9FF05C0EAFFEFCFEC
:103B600006F001C0E9FF02C0EAFF06C0EFFF045003
:103B7000020DF450026EF3CF01F0E00E0126000EAC
:103B8000022203C0E9FF05C0EAFFEFCF03F00350B4
:103B9000020DF450056EF3CF03F0650E0326060EFA
:103BA000052203C0E9FF05C0EAFFEECF03F0EFCF27
:103BB00005F08A0E0024066E076A040E072206C06E
:103BC000E9FF07C0EAFFEFCF06F00650020DF45000
:103BD000076EF3CF06F0650E0626060E072206C016
:103BE000E9FF07C0EAFFEECF06F0EFCF07F006507F
:103BF000035E0750055A0350FF08036EFF0E05567B
:103C000001C0E9FF02C0EAFF03C0EEFF05C0EFFFFD
:103C1000002A070E005CD8A07AD791C404F00401F2
:103C2000FDB105D00450006E080E0024046E006A39
:103C3000750E0426060E002204C0E9FF00C0EAFF4C
:103C4000080EEF6E006A0401FDB1002A0050D88012
:103C5000E866D890006A00360050010BF46EFD5102
:103C6000FE0BF410FD6FE4CF0BF0E4CF0AF0E4CFCD
:103C700009F0E4CF08F0E4CF07F0E4CF06F0E4CF9A
:103C800005F0E4CF04F0E4CF03F0E4CF02F0E4CF9A
:103C900001F0E4CF00F01200D9CFE5FFE1CFD9FF6A
:103CA00000C0E5FF01C0E5FF02C0E5FF03C0E5FF7E
:103CB00004C0E5FF05C0E5FF06C0E5FF07C0E5FF5E
:103CC00008C0E5FF09C0E5FF0AC0E5FF0BC0E5FF3E
:103CD000020EDBCF00F0030EDBCF01F0040EDBCFD2
:103CE00002F0036A046A74EC3BF0056EFE0A01E020
:103CF00090D05EEC35F074EC3BF0066E06500EE0B2
:103D00000650010A1DE00650020A2CE006500A0A7D
:103D10003BE006500B0A01E142D069D00050060F8B
:103D2000076E000E0120086E000E022007C0E9FF9A
:103D300008C0F3FF5FEC3EF0036EF3CF04F057D002
:103D400000500C0F076E000E0120086E000E0220BE
:103D500007C0E9FF08C0F3FF5FEC3EF0036EF3CF4E
:103D600004F045D000500E0F076E000E0120086EC3
:103D7000000E022007C0E9FF08C0F3FF5FEC3EF031
:103D8000036EF3CF04F033D000C0E9FF01C0F3FFAE
:103D900002505FEC3EF0036EF3CF04F028D00050E9
:103DA000020F076E000E0120086E000E0220096E41
:103DB00007C0E9FF08C0F3FF0950F8EC3CF0076EBC
:103DC000F3CF08F0F4CF09F0073608360736083687
:103DD0000734030B0818081A0818076E0950E8443E
:103DE000E844FC0B08120750036E0850046E0450A0
:103DF000E56E0350E56EE56A0650E56E000EE56E71
:103E00006A0EE56EB40EE56EB3EC37F0070EE126F0
:103E1000BED0055010E00550010A36E00550020AF8
:103E200001E15BD005500A0A01E180D005500B0A80
:103E300001E195D0ACD00050060F056E000E0120B8
:103E4000066E000E0220076E74EC3BF00B6E0A6AE1
:103E5000E56A0BC0F4FF05C0E9FF06C0F3FF075099
:103E600034EC3FF074EC3BF0096A0A2609500B224F
:103E70000AC0E5FF0BC0F4FF05C0E9FF06C0F3FF71
:103E8000075034EC3FF083D000500C0F056E000E4D
:103E90000120066E000E0220076E74EC3BF00B6EE4
:103EA0000A6AE56A0BC0F4FF05C0E9FF06C0F3FF2C
:103EB000075034EC3FF074EC3BF0096A0A260950D5
:103EC0000B220AC0E5FF0BC0F4FF05C0E9FF06C0E6
:103ED000F3FF075034EC3FF05AD000500E0F056E40
:103EE000000E0120066E000E0220076E74EC3BF0FF
:103EF0000B6E0A6AE56A0BC0F4FF05C0E9FF06C055
:103F0000F3FF075034EC3FF074EC3BF0096A0A26EB
:103F100009500B220AC0E5FF0BC0F4FF05C0E9FF02
:103F200006C0F3FF075034EC3FF031D074EC3BF0A7
:103F3000046E036A74EC3BF0066A03260650042202
:103F40000450E56E0350E56E0250E56E0150E56EDB
:103F50000050E56E94EC39F0050EE12618D074ECB3
:103F60003BF0046E036A74EC3BF0066A03260650CD
:103F700004220450E56E0350E56E0250E56E0150D8
:103F8000E56E0050E56E47EC28F0050EE126E4CF23
:103F90000BF0E4CF0AF0E4CF09F0E4CF08F0E4CF6F
:103FA00007F0E4CF06F0E4CF05F0E4CF04F0E4CF6F
:103FB00003F0E4CF02F0E4CF01F0E4CF00F0E4CF6F
:103FC000D9FF1200D9CFE5FFE1CFD9FF00C0E5FF4F
:103FD00001C0E5FF02C0E5FF03C0E5FF04C0E5FF47
:103FE00005C0E5FF06C0E5FF07C0E5FF08C0E5FF27
:103FF000020EDBCF00F0030EDBCF01F0040EDBCFAF
:1040000002F0036A046A74EC3BF0056EFE0A01E0FC
:1040100075D05EEC35F074EC3BF0066E040E065C79
:10402000D8B05AD0FA6AFB6A0634FA36E834FA365F
:10403000FC0B420FE56E400EFA22000EFB22E4500C
:10404000F96E29EF20F035EF20F048EF20F05BEF1C
:1040500020F000C0E9FF01C0F3FF0250EAEC3EF09F
:10406000076E07C003F0046A37D00050010F076ED7
:10407000000E0120086E000E022007C0E9FF08C0F4
:10408000F3FFEAEC3EF0076E07C003F0046A24D0A9
:104090000050020F076E000E0120086E000E022075
:1040A00007C0E9FF08C0F3FFEAEC3EF0076E07C067
:1040B00003F0046A11D000500F0F076E000E0120AC
:1040C000086E000E022007C0E9FF08C0F3FF5FEC96
:1040D0003EF0036EF3CF04F00450E56E0350E56E3E
:1040E000E56A0650E56E000EE56E570EE56EB20EFF
:1040F000E56EB3EC37F0070EE1268DD0040E055CBB
:10410000D8B089D0FA6AFB6A0534FA36E834FA3650
:10411000FC0B220FE56E410EFA22000EFB22E4504A
:10412000F96E99EF20F0A6EF20F0D1EF20F0E7EF45
:1041300020F074EC3BF0036E03C0E5FF00C0E9FF24
:1041400001C0F3FF025057EC3FF065D00050010F63
:10415000036E000E0120046E000E0220056E74EC4A
:104160003BF0066E06C0E5FF03C0E9FF04C0F3FFA5
:10417000055057EC3FF00650D8A44DD00050030F27
:10418000036E000E0120046E000E0220E56AF46A40
:10419000F66AF76A03C0E9FF04C0F3FFD9EC3EF00A
:1041A0003AD00050020F036E000E0120046E000E84
:1041B0000220056E74EC3BF0066E06C0E5FF03C0FE
:1041C000E9FF04C0F3FF055057EC3FF024D00F0E79
:1041D0000026000E0122022274EC3BF0066E056AF6
:1041E000E56A06C0F4FF00C0E9FF01C0F3FF02501A
:1041F00034EC3FF074EC3BF0046A052604500622D0
:1042000005C0E5FF06C0F4FF00C0E9FF01C0F3FFF1
:10421000025034EC3FF0E4CF08F0E4CF07F0E4CFF5
:1042200006F0E4CF05F0E4CF04F0E4CF03F0E4CFF0
:1042300002F0E4CF01F0E4CF00F0E4CFD9FF1200A8
:1042400000C0E5FF01C0E5FF02C0E5FF03C0E5FFD8
:1042500004011F51D8B40AD1A3A81DD0A4A81BD013
:10426000070106510701031905E118EC3FF00701AA
:10427000036BFCD0000E07010625006E016A0F0ECD
:10428000012200C0E9FF01C0EAFFEFCFFEF6062BD6
:10429000FEC673FFEBD0A4AAE9D071A205D0070136
:1042A000048118EC3FF0E2D071A405D0070104832B
:1042B00018EC3FF0DBD071A048D074CFFEF620C4DC
:1042C00000F0016A008EFEC602F0036A0250001878
:1042D00003E10350011801E004D00701048971963D
:1042E000C5D00601FE5104E0FE510401201929E168
:1042F0000701049971960601FE5103E00701049736
:1043000002D007010487FEC608F701C709F70701B5
:104310000151006E000407010A6F600E07010925B4
:10432000006E016A000E012200C0E9FF01C0EAFF31
:10433000FEC6EFFF092B0951800A02E10701096B54
:1043400095D007010499718691D074CFFEF60701CC
:1043500004A921D020C400F0016A008EFEC602F03C
:10436000036A0250001803E10350011801E011D064
:10437000899AA39A71980701035104E1736A18ECB2
:104380003FF007D000CF73FF010E0701066FA3882F
:104390006DD071866BD00601FE5107010827070119
:1043A000095107010A191BE1070108510CE109C76E
:1043B00001F7070104B712D0899AA39A7198736A1A
:1043C00018EC3FF00BD00701048504B707D0899A99
:1043D000A39A7198010E736E18EC3FF047D0070155
:1043E00009510701021908E10701025107010119EA
:1043F00003E018EC3FF03AD001C700F0016A004A30
:10440000012AE56A800EE56E0150E56E0050E56E0A
:1044100019EC30F0006E040EE12600500701006F29
:10442000070109190FE1FEC600F01F0E0014070175
:104430000A6F006E020E00240A6F07010151070186
:104440000A270A9F09C700F00701092B016A600EBD
:104450000026000E012200C0E9FF01C0EAFFFEC6EF
:10446000EFFF0951800A02E10701096BE4CF03F075
:10447000E4CF02F0E4CF01F0E4CF00F01200D9CF96
:10448000E5FFE1CFD9FF00C0E5FF01C0E5FF02C0B5
:10449000E5FF03C0E5FF04C0E5FF05C0E5FF06C07A
:1044A000E5FF07C0E5FF020EDBCF00F0030EDBCF18
:1044B00001F0040EDBCF02F0050EDBCF03F0060E99
:1044C000DBCF04F0070EDBCF05F0080EDBCF06F0E4
:1044D000090EDBCF07F000500601C76F0150C86F0F
:1044E0000250C96F0350CA6F04500601CB6F0550CC
:1044F000CC6F0650CD6F0750CE6F0601C751060135
:10450000CD03F4CF01F0F3CF00F000500601D16FDE
:104510000150D26F0601C7510601CB03F4CF01F061
:10452000F3CF00F000500601CF6F0150D06F0601AD
:10453000CA510601CB03F3CF00F00601D251002689
:104540000050D26F0601C9510601CC03F3CF01F030
:104550000150002600500601D26F0601C951060124
:10456000CB03F4CF01F0F3CF00F00601D1510026C8
:10457000D25101220050D16F0150D26F0601C851B3
:104580000601CC03F4CF03F0F3CF02F00250002673
:104590000350012200500601D16F0150D26F060175
:1045A000C8510601CD03F3CF00F000500601D66FCD
:1045B0000601C8510601CB03F4CF01F0F3CF00F0A0
:1045C00000500601D46F0150D56F0601C751060196
:1045D000CE03F3CF00F000500601DA6F0601C75199
:1045E0000601CC03F4CF01F0F3CF00F00050060138
:1045F000D86F0150D96F0601D36B0601D76B060146
:10460000D3510601CF25006E0601D4510601D021F9
:10461000016E0601D5510601D121026E0601D65167
:104620000601D221036E0050CF6F0150D06F0250AF
:10463000D16F0350D26F0601D7510601CF25006E0E
:104640000601D8510601D021016E0601D95106019B
:10465000D121026E0601DA510601D221036E03C098
:10466000E9FF02C0F4FF01C0F3FF0050E4CF07F000
:10467000E4CF06F0E4CF05F0E4CF04F0E4CF03F09C
:10468000E4CF02F0E4CF01F0E4CF00F0E4CFD9FFB3
:10469000120000C0E5FF01C0E5FF02C0E5FF03C056
:1046A000E5FF04C0E5FF05C0E5FF06C0E5FF07C064
:1046B000E5FF74EC3BF0006E010A17E00050020ABF
:1046C00019E000500A0A1BE000500B0A01E154D027
:1046D00000500C0A01E164D00050150A01E1A5D098
:1046E00000503C0A01E1A6D0BCD074EC3BF00601BE
:1046F000FA6FB7D074EC3BF00401006FB2D0420EF9
:10470000FDEC39F00A0E0401056F006A016A0050E1
:10471000026E022A022A036A02BE0368040E0226FF
:10472000040E0322230E0024046E0F0E0120056EDA
:1047300004C0E9FF05C0EAFFEFCF04F002C0E9FFC3
:1047400003C0EAFF04C0EFFF004A012A000E015C2B
:1047500002E1130E005CDBE30A0E0401196F160E72
:10476000E56E800EE56E040EE56E040EE56E9CECC3
:104770002EF0040EE12675D074EC3BF0006E74EC64
:104780003BF0016E036A230E00260F0E0322015038
:10479000046E00C0E9FF03C0EAFF04C0EFFF61D070
:1047A000420EFDEC39F00C0E0401056F006A036A3D
:1047B0000050046E042A042A056A04BE0568040E2B
:1047C0000426040E0522230E0024066E0F0E03207D
:1047D000076E06C0E9FF07C0EAFFEFCF06F0E56A03
:1047E0000650E56EAFEC3CF0066EE652E65204C0B1
:1047F000E9FF05C0EAFF06C0EFFF004A032A000EEA
:10480000035C02E1130E005CD3E30A0E0401196F8E
:10481000160EE56E800EE56E040EE56E040EE56E76
:104820009CEC2EF0040EE1261CD0400EE56E89ECC7
:104830003CF0E65274EC3BF0006A036E74EC3BF023
:10484000056A0024016E05500320026E74EC3BF0F3
:10485000E56E0250E56E0150E56EC0EC3AF0030ED5
:10486000E126E4CF07F0E4CF06F0E4CF05F0E4CF93
:1048700004F0E4CF03F0E4CF02F0E4CF01F0E4CFA2
:1048800000F01200D9CFE5FFE1CFD9FF00C0E5FF6E
:1048900001C0E5FF02C0E5FF03C0E5FF04C0E5FF7E
:1048A00005C0E5FF06C0E5FF07C0E5FF08C0E5FF5E
:1048B00009C0E5FF0AC0E5FF0BC0E5FF0CC0E5FF3E
:1048C0000DC0E5FF0EC0E5FF0FC0E5FF020EDBCF18
:1048D00000F0030EDBCF01F0040EDBCF02F0050E7B
:1048E000DBCF03F0060EDBCF04F0070EDBCF05F0C5
:1048F000080EDBCF06F0200E076E086A06C009F02E
:104900000A6A0B6A0C6AE56AE56AE56A0950E56EAF
:104910000350E56E0250E56E0150E56E0050E56E05
:10492000EAEC28F00D6E080EE126300E0D263A0E48
:104930000D5C05E30D500E6E270E0E240D6EFF0E5E
:10494000072608225C0E07240E6E040E08200F6E48
:104950000EC0E9FF0FC0EAFF0DC0EFFF0C50E56E7F
:104960000B50E56E0A50E56E0950E56E0350E56E9A
:104970000250E56E0150E56E0050E56E6EEC2CF0D5
:10498000006EF3CF01F0F4CF02F0E9CF03F0080E90
:10499000E1260050011002100310D8A4AFD707C0C1
:1049A00000F008C001F004C002F005C003F000C030
:1049B00004F001C005F0004A012A5C0E0426040E32
:1049C000052204C0E9FF05C0EAFFEFCF04F002C0F2
:1049D000E9FF03C0EAFF04C0EFFF024A032A000E0A
:1049E000015C02E1200E005CE2E302C0E9FF03C0CB
:1049F000EAFF000EEF6AE4CF0FF0E4CF0EF0E4CF51
:104A00000DF0E4CF0CF0E4CF0BF0E4CF0AF0E4CFEC
:104A100009F0E4CF08F0E4CF07F0E4CF06F0E4CFEC
:104A200005F0E4CF04F0E4CF03F0E4CF02F0E4CFEC
:104A300001F0E4CF00F0E4CFD9FF120000C0E5FFA1
:104A400001C0E5FF02C0E5FF03C0E5FF04C0E5FFCC
:104A5000100E0401025D3AE20251100DF450016E95
:104A6000F3CF00F0000E0026010E0122800E026E30
:104A7000230E0225036E046A0F0E042203C0E9FF11
:104A800004C0EAFFEFCF03F0E56A0350E56EAFEC38
:104A90003CF0E652E652E56AE56EE56A040EE56E24
:104AA000B0EC35F0036EF3CF04F0040EE1260450B1
:104AB000E56E0350E56E0250E56E0150E56E005064
:104AC000E56E94EC39F0050EE1267CD0040102512C
:104AD000100A1BE133CF00F0E56A0050E56EAFEC41
:104AE0003CF0E652E652E56AE56EE56A040EE56ED4
:104AF000B0EC35F0006EF3CF01F0040EE12600506B
:104B000004019E6F01509F6F5DD004010251110A94
:104B10001BE134CF00F0E56A0050E56EAFEC3CF0ED
:104B2000E652E652E56AE56EE56A040EE56EB0EC23
:104B300035F0006EF3CF01F0040EE12600500601BF
:104B40000B6F01500C6F3ED004010251120A3AE182
:104B500035CF00F0E56A0050E56EAFEC3CF0E65270
:104B6000E652020DF450016EF3CF00F0026A6C0EB3
:104B70000026120E0122000E022200C0F6FF01C024
:104B8000F7FF02C0F8FF0900F5CF00F00900F5CFEC
:104B900001F00150E56E0050E56E010EE56E000E6D
:104BA000E56AB0EC35F0006EF3CF01F0040EE126BB
:104BB0000150E56E0050E56E000EE56AC3EC26F08C
:104BC000030EE1260401022B0251130A02E1040143
:104BD000026BE4CF04F0E4CF03F0E4CF02F0E4CFC3
:104BE00001F0E4CF00F01200D9CFE5FFE1CFD9FF0B
:104BF00000C0E5FF01C0E5FF02C0E5FF03C0E5FF1F
:104C000004C0E5FF05C0E5FF06C0E5FF07C0E5FFFE
:104C100008C0E5FF09C0E5FF0AC0E5FF0BC0E5FFDE
:104C20000CC0E5FF0DC0E5FF020EDBCF00F0030E68
:104C3000DBCF01F0040EDBCF02F0050EDBCF03F07B
:104C4000060EDBCF04F0070EDBCF05F0080EDBCF3E
:104C500006F0090EDBCF07F0D88003AED890086AC3
:104C6000083608500FE0031C0C6E021C0B6E011C72
:104C70000A6E001C096E092A0DE10A2A0BE10B4A93
:104C80000C2A08D000C009F001C00AF002C00BF0E5
:104C900003C00CF0D88007AED890006A00360050F0
:104CA0000FE0071C0D6E061C036E051C026E041C33
:104CB000016E012A0DE1022A0BE1034A0D2A08D0F8
:104CC00004C001F005C002F006C003F007C00DF0FB
:104CD0000D50E56E0350E56E0250E56E0150E56E35
:104CE0000C50E56E0B50E56E0A50E56E0950E56E0E
:104CF0006EEC2CF0016EF3CF02F0F4CF03F0E9CFAD
:104D000004F0080EE1260050081A085016E0041CB2
:104D1000076E031C066E021C056E011C006E002A45
:104D200004E1052A02E1064A072A07C0E9FF06C096
:104D3000F4FF05C0F3FF005007D004C0E9FF03C033
:104D4000F4FF02C0F3FF0150E4CF0DF0E4CF0CF00C
:104D5000E4CF0BF0E4CF0AF0E4CF09F0E4CF08F0A1
:104D6000E4CF07F0E4CF06F0E4CF05F0E4CF04F0A1
:104D7000E4CF03F0E4CF02F0E4CF01F0E4CF00F0A1
:104D8000E4CFD9FF1200D9CFE5FFE1CFD9FF00C0B2
:104D9000E5FF01C0E5FF02C0E5FF03C0E5FF04C079
:104DA000E5FF05C0E5FF06C0E5FF07C0E5FF08C059
:104DB000E5FF020EDBCF00F0030EDBCF01F0040EA7
:104DC000DBCF02F00401FE51FF11D8B445D00050F2
:104DD000020DF450046EF3CF03F0650E0326060EA9
:104DE00004220150FF08056EFF0E0254E56AE56AD1
:104DF000E56E0550E56EE56AE56A460EE56E500E15
:104E0000E56E3FEC22F0056EF3CF06F0F4CF07F02D
:104E1000E9CF08F0080EE126E56AE56AE568E5688D
:104E20000850E56E0750E56E0650E56E0550E56EDC
:104E30006EEC2CF0056EF3CF06F0080EE126980E0E
:104E400005263A0E062203C0E9FF04C0EAFF05C0AA
:104E5000EEFF06C0EFFF45D00050020DF450036E88
:104E6000F3CF00F0650E0026060E03220150FF0866
:104E7000016EFF0E0256E56AE56A0250E56E0150CA
:104E8000E56EE56AE56A610EE56EA80EE56E3FEC3B
:104E900022F0016EF3CF02F0F4CF04F0E9CF05F079
:104EA000080EE126E56AE56AE568E5680550E56E05
:104EB0000450E56E0250E56E0150E56E6EEC2CF08C
:104EC000016EF3CF02F0080EE126400E01261F0E00
:104ED000022200C0E9FF03C0EAFF01C0EEFF02C0EA
:104EE000EFFF0401FD85E4CF08F0E4CF07F0E4CF45
:104EF00006F0E4CF05F0E4CF04F0E4CF03F0E4CF14
:104F000002F0E4CF01F0E4CF00F0E4CFD9FF1200CB
:104F1000800EE56E0F0EE56E230EE56EF3EC37F0B6
:104F2000030EE126800EE56E0F0EE56E240EE56E93
:104F3000F3EC37F0030EE126800EE56E0F0EE56E02
:104F4000250EE56EF3EC37F0030EE126800EE56EDC
:104F50000F0EE56E260EE56EF3EC37F0030EE1263C
:104F6000800EE56E0F0EE56E270EE56EF3EC37F062
:104F7000030EE126800EE56E0F0EE56E280EE56E3F
:104F8000F3EC37F0030EE126800EE56E0F0EE56EB2
:104F9000290EE56EF3EC37F0030EE126800EE56E88
:104FA0000F0EE56E2A0EE56EF3EC37F0030EE126E8
:104FB000800EE56E0F0EE56E2B0EE56EF3EC37F00E
:104FC000030EE126800EE56E0F0EE56E2C0EE56EEB
:104FD000F3EC37F0030EE126800EE56E0F0EE56E62
:104FE0002D0EE56EF3EC37F0030EE126800EE56E34
:104FF0000F0EE56E2E0EE56EF3EC37F0030EE12694
:10500000800EE56E0F0EE56E2F0EE56EF3EC37F0B9
:10501000030EE126800EE56E0F0EE56E300EE56E96
:10502000F3EC37F0030EE126800EE56E0F0EE56E11
:10503000310EE56EF3EC37F0030EE126800EE56EDF
:105040000F0EE56E320EE56EF3EC37F0030EE1263F
:10505000800EE56E0F0EE56E330EE56EF3EC37F065
:10506000030EE126800EE56E0F0EE56E340EE56E42
:10507000F3EC37F0030EE126800EE56E0F0EE56EC1
:10508000350EE56EF3EC37F0030EE1261200D9CFB2
:10509000E5FFE1CFD9FF00C0E5FF01C0E5FF02C099
:1050A000E5FF03C0E5FF04C0E5FF05C0E5FF06C05E
:1050B000E5FF07C0E5FF08C0E5FF09C0E5FF0AC03E
:1050C000E5FF0BC0E5FF0CC0E5FF0DC0E5FF020EDC
:1050D000DBCF00F0030EDBCF01F0040EDBCF02F0DC
:1050E000050EDBCF03F0060EDBCF04F003C0E5FFB7
:1050F00004C0F4FF00C0E9FF01C0F3FF025034EC2C
:105100003FF00050020F056E000E0120066E000EEB
:105110000220076EE86A04BEFF0E086E096E0840A2
:105120000C6E0C4209400D6E0D42C00E0D160C1493
:105130000C180D120C1A0450E840E8403F0B0C12FA
:1051400003400A6E0A4204400B6E0B42C00E0B165F
:105150000A140A180B120A1A0AC0E5FF0BC0F4FF62
:105160000CC0F6FF0DC0F7FF05C0E9FF06C0F3FF56
:105170000750D9EC3EF0080E0026000E0122022254
:10518000E56AF46AF66AF76A00C0E9FF01C0F3FF56
:105190000250D9EC3EF0E4CF0DF0E4CF0CF0E4CFB8
:1051A0000BF0E4CF0AF0E4CF09F0E4CF08F0E4CF4D
:1051B00007F0E4CF06F0E4CF05F0E4CF04F0E4CF4D
:1051C00003F0E4CF02F0E4CF01F0E4CF00F0E4CF4D
:1051D000D9FF1200D9CFE5FFE1CFD9FF00C0E5FF2D
:1051E00001C0E5FF02C0E5FF03C0E5FF04C0E5FF25
:1051F00005C0E5FF06C0E5FF07C0E5FF08C0E5FF05
:1052000009C0E5FF0AC0E5FF020EDBCF00F0030E88
:10521000DBCF01F0040EDBCF02F0050EDBCF03F095
:10522000060EDBCF04F0070EDBCF05F0080EDBCF58
:1052300006F0090EDBCF07F0086A045005100610CF
:10524000071005E1E968F468F368E86847D0096A7F
:105250000750800BE8440A6E0A501BE104500426F4
:105260000536063607360750035C08E10650025C37
:1052700005E10550015C02E10450005C06E2D890B3
:10528000073206320532043204D0092A09C008F078
:10529000DFD70750035C08E10650025C05E10550CA
:1052A000015C02E10450005C08E30450005E05501C
:1052B000015A0650025A0750035AD8900732063254
:1052C0000532043208C009F008060950E2E103C0C3
:1052D000E9FF02C0F4FF01C0F3FF0050E4CF0AF081
:1052E000E4CF09F0E4CF08F0E4CF07F0E4CF06F014
:1052F000E4CF05F0E4CF04F0E4CF03F0E4CF02F014
:10530000E4CF01F0E4CF00F0E4CFD9FF120000C0F9
:10531000E5FF01C0E5FF02C0E5FF03C0E5FF04C0F3
:10532000E5FF070102510701011901E16AD002C737
:1053300000F00050016E0128006E009E600E0024F7
:10534000016E026A000E022201C0E9FF02C0EAFFFC
:10535000EFCF0CF71F0E07010C1702C70BF70C510C
:1053600007010B270B51016E020E01240B6F0B9FDF
:1053700074EC3BF0016E015003E1016A012A01D097
:10538000016A74EC3BF007010C6F0CC702F0800E51
:1053900002160CC703F01F0E031603C004F003C06F
:1053A0000CF7045003E101C702F73ED001501EE0A4
:1053B000025025E074EC3BF0006E07010C51016EC9
:1053C00001040C6F0050420A1AE000504E0A03E13B
:1053D00071EC37F014D00050460A03E14CEC3FF07A
:1053E0000ED00050490A0BE1FF0009D002C70DF7AB
:1053F000025003E09CEC36F002D049EC23F00BC7DE
:1054000002F704011C5104011D1906E007010351B4
:1054100003E11FEC2AF008D089BA06D00701035136
:1054200003E172B218EC3FF0E4CF04F0E4CF03F0F4
:10543000E4CF02F0E4CF01F0E4CF00F0120000C0AE
:10544000E5FF01C0E5FF02C0E5FF03C0E5FF04C0C2
:10545000E5FF72A27ED018EC3DF0006E005005E131
:1054600004011D6B04011C6B74D01DC401F00050BD
:10547000012618EC3DF0026E0050036E0304006E2E
:105480000250230A1FE1010E005CD8A060D018EC86
:105490003DF0026E690A03E190EC3AF058D00250F8
:1054A000720A03E118EC3FF052D00250730A01E097
:1054B0004ED0898A7186A38AA398745074507198CB
:1054C000718845D00250430A05E00250420A01E0CB
:1054D0003ED006D000C003F0046A038E0350006E75
:1054E00000C005F700500F01006F010E0701066FA5
:1054F00004011D51011814E018EC3DF0026E070183
:105500000527000E07010625006E036A0F0E032211
:1055100000C0E9FF03C0EAFF02C0EFFF062BE8D797
:10552000000E07010625006E026A0F0E0222070117
:10553000051D036E032A00C0E9FF02C0EAFF03C095
:10554000EFFF0701062B06C703F70601FC6B01C03E
:105550001DF4E4CF04F0E4CF03F0E4CF02F0E4CF95
:1055600001F0E4CF00F01200D9CFE5FFE1CFD9FF81
:1055700000C0E5FF01C0E5FF02C0E5FF03C0E5FF95
:1055800004C0E5FF06C0E5FF020EDBCF00F0030E0E
:10559000DBCF01F0040EDBCF02F03F0EC716C66A68
:1055A000C56A0050C6120150C7129488820E006E60
:1055B0000F0E016E0F0E046E380E002604500122ED
:1055C0000F0E046E800E005E0450015A820E036EB0
:1055D0000F0E046E0F0E066E380E032606500422C0
:1055E0000F0E066E800E035E0650045A03C0E9FFDC
:1055F00004C0EAFFEFCF03F0039800C0E9FF01C049
:10560000EAFF03C0EFFF9486820E006E0F0E016E5C
:105610000F0E046E380E0026045001220F0E046E89
:10562000800E005E0450015A820E036E0F0E046E4F
:105630000F0E066E380E0326065004220F0E066E5D
:10564000800E035E0650045A03C0E9FF04C0EAFF5F
:10565000EFCF03F0039600C0E9FF01C0EAFF03C0EB
:10566000EFFF02C0C8FFC6CF00F0008A0050C66E30
:105670009E96A196E4CF06F0E4CF04F0E4CF03F0C9
:10568000E4CF02F0E4CF01F0E4CF00F0E4CFD9FFA3
:105690001200D9CFE5FFE1CFD9FF00C0E5FF01C07F
:1056A000E5FF02C0E5FF03C0E5FF04C0E5FF05C05C
:1056B000E5FF06C0E5FF07C0E5FF020EDBCF00F007
:1056C000030EDBCF01F0040EDBCF02F000500B0F16
:1056D000036E000E0120046E000E0220E56AF46ADB
:1056E000F66AF76A03C0E9FF04C0F3FFD9EC3EF0A5
:1056F0000050070F036E000E0120046E000E022002
:10570000056E0050030F066E000E0120076E000E9E
:105710000220E56AF46AF66AF76A06C0E9FF07C084
:10572000F3FFD9EC3EF0E56AF46AF66AF76A03C063
:10573000E9FF04C0F3FF0550D9EC3EF00050010F23
:10574000036E000E0120046E000E0220056E005054
:10575000020F066E000E0120076E000E0220E56AA1
:1057600006C0E9FF07C0F3FF57EC3FF0E56A03C04E
:10577000E9FF04C0F3FF055057EC3FF0E56A00C0B5
:10578000E9FF01C0F3FF025057EC3FF0E4CF07F010
:10579000E4CF06F0E4CF05F0E4CF04F0E4CF03F06B
:1057A000E4CF02F0E4CF01F0E4CF00F0E4CFD9FF82
:1057B000120025642025640A0000D9CFE5FFE1CF5F
:1057C000D9FF00C0E5FF01C0E5FF02C0E5FF03C04F
:1057D000E5FF04C0E5FF05C0E5FF06C0E5FF07C023
:1057E000E5FF020EDBCF00F0030EDBCF01F04AEC49
:1057F0003BF0026EF3CF03F0F4CF04F0E9CF05F0F5
:10580000E56AE56A0150E56E0050E56EE56A0F0E47
:10581000E56E420EE56E400EE56E3FEC22F0006E46
:10582000F3CF01F0F4CF06F0E9CF07F0080EE12640
:10583000E56AE56A030EE56EE80EE56E0750E56E73
:105840000650E56E0150E56E0050E56E6EEC2CF0F2
:10585000006EF3CF01F0F4CF06F0E9CF07F0080EA9
:10586000E12600500224006E01500320016E065014
:105870000420026E07500520036E4AEC3BF0046ED4
:10588000F3CF05F0F4CF06F0E9CF07F00050045E47
:105890000150055A0250065A0350075A079E3F0E00
:1058A000075C08E1FF0E065C05E1FF0E055C02E106
:1058B000FF0E045CE2E2E4CF07F0E4CF06F0E4CFB1
:1058C00005F0E4CF04F0E4CF03F0E4CF02F0E4CF3E
:1058D00001F0E4CF00F0E4CFD9FF1200D9CFE5FF0B
:1058E000E1CFD9FF00C0E5FF01C0E5FF02C0E5FF41
:1058F00003C0E5FF04C0E5FF05C0E5FF06C0E5FF06
:1059000007C0E5FF08C0E5FF09C0E5FF0AC0E5FFE5
:105910000BC0E5FF0CC0E5FF0DC0E5FF020EDBCFBD
:1059200000F0030EDBCF01F0040EDBCF02F0050E1A
:10593000DBCF03F0060EDBCF04F0070EDBCF05F064
:10594000080EDBCF06F0090EDBCF07F0086A096A04
:105950000A6A0B6A200E0C6E0350800BE8440D6E31
:105960000050002601360236033608500826093654
:105970000A360B360D50D8A4088007500B5C08E19E
:1059800006500A5C05E10550095C02E10450085C20
:1059900009E30450085E0550095A06500A5A075098
:1059A0000B5A00800C040D6E0DC00CF00D50D4E1AC
:1059B00003C0E9FF02C0F4FF01C0F3FF0050E4CFD1
:1059C0000DF0E4CF0CF0E4CF0BF0E4CF0AF0E4CF1D
:1059D00009F0E4CF08F0E4CF07F0E4CF06F0E4CF1D
:1059E00005F0E4CF04F0E4CF03F0E4CF02F0E4CF1D
:1059F00001F0E4CF00F0E4CFD9FF120000C0E5FFD2
:105A000001C0E5FF03C0E5FF04C0E5FF05C0E5FFF9
:105A100006C0E5FF07C0E5FF08C0E5FF09C0E5FFD8
:105A20000AC0E5FF0BC0E5FFE4C600F0E5C601F0E3
:105A30000601E43F01D0E52B0050E56E0AEC3FF093
:105A4000E652076E046A056A066AE4C600F0E5C617
:105A500001F00601E43F01D0E52B0050E56E0AECB1
:105A60003FF0E6520B6A0A6E086A085004120512EB
:105A70000A5006120B500712E4C600F0E5C601F00A
:105A80000601E43F01D0E52B0050E56E0AEC3FF043
:105A9000E652036E006A03C001F0E86A03BEFF0E1F
:105AA000086E096E005004120150051208500612CB
:105AB00009500712E4C600F0E5C601F00601E43F14
:105AC00001D0E52B0050E56E0AEC3FF0E652016A8A
:105AD0000412015005120612071207C0E9FF06C0A2
